{
  "_format": "hh-sol-artifact-1",
  "contractName": "MediloomFileStorage",
  "sourceName": "contracts/MediloomFileStorage.sol",
  "abi": [
    {
      "anonymous": false,
      "inputs": [
        {
          "indexed": true,
          "internalType": "bytes32",
          "name": "fileHash",
          "type": "bytes32"
        },
        {
          "indexed": true,
          "internalType": "address",
          "name": "uploader",
          "type": "address"
        },
        {
          "indexed": false,
          "internalType": "uint256",
          "name": "timestamp",
          "type": "uint256"
        }
      ],
      "name": "FileStored",
      "type": "event"
    },
    {
      "inputs": [
        {
          "internalType": "bytes32",
          "name": "",
          "type": "bytes32"
        }
      ],
      "name": "files",
      "outputs": [
        {
          "internalType": "address",
          "name": "uploader",
          "type": "address"
        },
        {
          "internalType": "uint256",
          "name": "timestamp",
          "type": "uint256"
        }
      ],
      "stateMutability": "view",
      "type": "function"
    },
    {
      "inputs": [
        {
          "internalType": "bytes32",
          "name": "fileHash",
          "type": "bytes32"
        }
      ],
      "name": "storeFileHash",
      "outputs": [],
      "stateMutability": "nonpayable",
      "type": "function"
    },
    {
      "inputs": [
        {
          "internalType": "bytes32",
          "name": "fileHash",
          "type": "bytes32"
        }
      ],
      "name": "verifyFile",
      "outputs": [
        {
          "internalType": "bool",
          "name": "",
          "type": "bool"
        },
        {
          "internalType": "address",
          "name": "",
          "type": "address"
        },
        {
          "internalType": "uint256",
          "name": "",
          "type": "uint256"
        }
      ],
      "stateMutability": "view",
      "type": "function"
    }
  ],
  "bytecode": "0x6080604052348015600f57600080fd5b5061050c8061001f6000396000f3fe608060405234801561001057600080fd5b50600436106100415760003560e01c80634b67d54b1461004657806398c9adff14610078578063cf4df59e146100a9575b600080fd5b610060600480360381019061005b919061033c565b6100c5565b60405161006f939291906103de565b60405180910390f35b610092600480360381019061008d919061033c565b610182565b6040516100a0929190610415565b60405180910390f35b6100c360048036038101906100be919061033c565b6101c6565b005b6000806000806000808681526020019081526020016000206040518060400160405290816000820160009054906101000a900473ffffffffffffffffffffffffffffffffffffffff1673ffffffffffffffffffffffffffffffffffffffff1673ffffffffffffffffffffffffffffffffffffffff168152602001600182015481525050905060008160200151036101675760008060009350935093505061017b565b600181600001518260200151935093509350505b9193909250565b60006020528060005260406000206000915090508060000160009054906101000a900473ffffffffffffffffffffffffffffffffffffffff16908060010154905082565b6000806000838152602001908152602001600020600101541461021e576040517f08c379a00000000000000000000000000000000000000000000000000000000081526004016102159061049b565b60405180910390fd5b60405180604001604052803373ffffffffffffffffffffffffffffffffffffffff1681526020014281525060008083815260200190815260200160002060008201518160000160006101000a81548173ffffffffffffffffffffffffffffffffffffffff021916908373ffffffffffffffffffffffffffffffffffffffff160217905550602082015181600101559050503373ffffffffffffffffffffffffffffffffffffffff16817fb2af71fc343c7772d37748f2a6aa770eadb5113b854ae06bbb035c455a2106c2426040516102f691906104bb565b60405180910390a350565b600080fd5b6000819050919050565b61031981610306565b811461032457600080fd5b50565b60008135905061033681610310565b92915050565b60006020828403121561035257610351610301565b5b600061036084828501610327565b91505092915050565b60008115159050919050565b61037e81610369565b82525050565b600073ffffffffffffffffffffffffffffffffffffffff82169050919050565b60006103af82610384565b9050919050565b6103bf816103a4565b82525050565b6000819050919050565b6103d8816103c5565b82525050565b60006060820190506103f36000830186610375565b61040060208301856103b6565b61040d60408301846103cf565b949350505050565b600060408201905061042a60008301856103b6565b61043760208301846103cf565b9392505050565b600082825260208201905092915050565b7f46696c6520616c72656164792065786973747300000000000000000000000000600082015250565b600061048560138361043e565b91506104908261044f565b602082019050919050565b600060208201905081810360008301526104b481610478565b9050919050565b60006020820190506104d060008301846103cf565b9291505056fea2646970667358221220dab367bf7d2518512327edd0822e5573beb4a44df3e0714f8f09eff1e0de443964736f6c634300081c0033",
  "linkReferences": {},
  "deployedLinkReferences": {}
}